{
  "contractName": "TodoList",
  "abi": [
    {
      "anonymous": false,
      "inputs": [
        {
          "indexed": false,
          "internalType": "uint256",
          "name": "id",
          "type": "uint256"
        },
        {
          "indexed": false,
          "internalType": "bool",
          "name": "completed",
          "type": "bool"
        }
      ],
      "name": "TaskCompleted",
      "type": "event"
    },
    {
      "anonymous": false,
      "inputs": [
        {
          "indexed": false,
          "internalType": "uint256",
          "name": "id",
          "type": "uint256"
        },
        {
          "indexed": false,
          "internalType": "string",
          "name": "content",
          "type": "string"
        },
        {
          "indexed": false,
          "internalType": "bool",
          "name": "completed",
          "type": "bool"
        }
      ],
      "name": "TaskCreated",
      "type": "event"
    },
    {
      "constant": true,
      "inputs": [],
      "name": "taskCount",
      "outputs": [
        {
          "internalType": "uint256",
          "name": "",
          "type": "uint256"
        }
      ],
      "payable": false,
      "stateMutability": "view",
      "type": "function"
    },
    {
      "constant": true,
      "inputs": [
        {
          "internalType": "uint256",
          "name": "",
          "type": "uint256"
        }
      ],
      "name": "tasks",
      "outputs": [
        {
          "internalType": "uint256",
          "name": "id",
          "type": "uint256"
        },
        {
          "internalType": "string",
          "name": "content",
          "type": "string"
        },
        {
          "internalType": "bool",
          "name": "completed",
          "type": "bool"
        }
      ],
      "payable": false,
      "stateMutability": "view",
      "type": "function"
    },
    {
      "constant": false,
      "inputs": [
        {
          "internalType": "string",
          "name": "_content",
          "type": "string"
        }
      ],
      "name": "addTask",
      "outputs": [],
      "payable": false,
      "stateMutability": "nonpayable",
      "type": "function"
    },
    {
      "constant": false,
      "inputs": [
        {
          "internalType": "uint256",
          "name": "_id",
          "type": "uint256"
        }
      ],
      "name": "completedTask",
      "outputs": [],
      "payable": false,
      "stateMutability": "nonpayable",
      "type": "function"
    }
  ],
  "bytecode": "0x60806040526000805534801561001457600080fd5b50610603806100246000396000f3fe608060405234801561001057600080fd5b506004361061004c5760003560e01c806367238562146100515780638d977672146100f9578063b6cb58a5146101a0578063ed454764146101ba575b600080fd5b6100f76004803603602081101561006757600080fd5b81019060208101813564010000000081111561008257600080fd5b82018360208201111561009457600080fd5b803590602001918460018302840111640100000000831117156100b657600080fd5b91908080601f0160208091040260200160405190810160405280939291908181526020018383808284376000920191909152509295506101d7945050505050565b005b6101166004803603602081101561010f57600080fd5b50356102fb565b604051808481526020018060200183151515158152602001828103825284818151815260200191508051906020019080838360005b8381101561016357818101518382015260200161014b565b50505050905090810190601f1680156101905780820380516001836020036101000a031916815260200191505b5094505050505060405180910390f35b6101a86103aa565b60408051918252519081900360200190f35b6100f7600480360360208110156101d057600080fd5b50356103b0565b600080546001908101808355604080516060810182528281526020808201878152828401879052938652848152919094208451815591518051929361022493908501929190910190610510565b5060408201518160020160006101000a81548160ff0219169083151502179055509050507f05d0fb833127fc08168556d0e7ca9554fc3f6bc843b3b7d2bf1c35aea6bab660600054826000604051808481526020018060200183151515158152602001828103825284818151815260200191508051906020019080838360005b838110156102bc5781810151838201526020016102a4565b50505050905090810190601f1680156102e95780820380516001836020036101000a031916815260200191505b5094505050505060405180910390a150565b600160208181526000928352604092839020805481840180548651600296821615610100026000190190911695909504601f810185900485028601850190965285855290949193929091908301828280156103975780601f1061036c57610100808354040283529160200191610397565b820191906000526020600020905b81548152906001019060200180831161037a57829003601f168201915b5050506002909301549192505060ff1683565b60005481565b6103b861058e565b60008281526001602081815260409283902083516060810185528154815281840180548651600296821615610100026000190190911695909504601f810185900485028601850190965285855290949193858401939092908301828280156104615780601f1061043657610100808354040283529160200191610461565b820191906000526020600020905b81548152906001019060200180831161044457829003601f168201915b50505091835250506002919091015460ff161515602091820152604080830180511590526000858152600180845291902083518155838301518051949550859491936104b293850192910190610510565b50604091820151600291909101805460ff1916911515919091179055818101518151848152901515602082015281517fe21fa966ca5cd02748c0752352d18c48165e61cb55b4c29cccf924b5a95fcff1929181900390910190a15050565b828054600181600116156101000203166002900490600052602060002090601f016020900481019282601f1061055157805160ff191683800117855561057e565b8280016001018555821561057e579182015b8281111561057e578251825591602001919060010190610563565b5061058a9291506105b1565b5090565b604051806060016040528060008152602001606081526020016000151581525090565b6105cb91905b8082111561058a57600081556001016105b7565b9056fea265627a7a72315820f117f21cff4b4e2ea04a2244495235015d8136414d78e7051baa14f55ceede8b64736f6c63430005100032",
  "source": "pragma solidity ^0.5.0;\r\n\r\n  contract TodoList {\r\n  uint public taskCount = 0;\r\n\r\n  struct Task {\r\n    uint id;\r\n    string content;\r\n    bool completed;\r\n  }\r\n\r\n  mapping(uint => Task) public tasks;\r\n\r\n  event TaskCreated(\r\n    uint id,\r\n    string content,\r\n    bool completed\r\n  );\r\n\r\n  event TaskCompleted(\r\n    uint id,\r\n    bool completed\r\n  );\r\n\r\n  \r\n\r\n  function addTask(string memory _content) public {\r\n    taskCount ++;\r\n    tasks[taskCount] = Task(taskCount, _content, false);\r\n    emit TaskCreated(taskCount, _content, false);\r\n  }\r\n\r\n  function completedTask(uint _id) public {\r\n    Task memory _task = tasks[_id];\r\n    _task.completed = !_task.completed;\r\n    tasks[_id] = _task;\r\n    emit TaskCompleted(_id, _task.completed);\r\n  }\r\n\r\n\r\n  }\r\n\r\n",
  "sourcePath": "C:\\Users\\zodia\\Desktop\\Blockchain\\eth-todo-list\\contracts\\todolist.sol",
  "compiler": {
    "name": "solc",
    "version": "0.5.16+commit.9c3226ce.Emscripten.clang"
  },
  "schemaVersion": "3.4.9",
  "updatedAt": "2022-08-12T14:39:29.070Z",
  "networkType": "ethereum",
  "devdoc": {
    "methods": {}
  },
  "userdoc": {
    "methods": {}
  }
}